{
  "contractName": "CryptoPay",
  "abi": [
    {
      "inputs": [
        {
          "internalType": "address payable",
          "name": "_receiverAddress",
          "type": "address"
        }
      ],
      "stateMutability": "nonpayable",
      "type": "constructor"
    },
    {
      "anonymous": false,
      "inputs": [
        {
          "indexed": false,
          "internalType": "bool",
          "name": "_status",
          "type": "bool"
        },
        {
          "indexed": false,
          "internalType": "uint256",
          "name": "_amount",
          "type": "uint256"
        }
      ],
      "name": "_transfer",
      "type": "event"
    },
    {
      "stateMutability": "payable",
      "type": "fallback",
      "payable": true
    },
    {
      "stateMutability": "payable",
      "type": "receive",
      "payable": true
    },
    {
      "inputs": [
        {
          "internalType": "address payable",
          "name": "_sender",
          "type": "address"
        }
      ],
      "name": "_payment",
      "outputs": [
        {
          "internalType": "bool",
          "name": "",
          "type": "bool"
        },
        {
          "internalType": "bytes",
          "name": "",
          "type": "bytes"
        }
      ],
      "stateMutability": "payable",
      "type": "function",
      "payable": true
    }
  ],
  "bytecode": "0x608060405234801561000f575f80fd5b50604051610c00380380610c00833981810160405281019061003191906100d4565b805f806101000a81548173ffffffffffffffffffffffffffffffffffffffff021916908373ffffffffffffffffffffffffffffffffffffffff160217905550506100ff565b5f80fd5b5f73ffffffffffffffffffffffffffffffffffffffff82169050919050565b5f6100a38261007a565b9050919050565b6100b381610099565b81146100bd575f80fd5b50565b5f815190506100ce816100aa565b92915050565b5f602082840312156100e9576100e8610076565b5b5f6100f6848285016100c0565b91505092915050565b610af48061010c5f395ff3fe608060405260043610610021575f3560e01c806337c6107f1461002a57610028565b3661002857005b005b610044600480360381019061003f9190610608565b61005b565b6040516100529291906106d7565b60405180910390f35b5f6060825f73ffffffffffffffffffffffffffffffffffffffff168173ffffffffffffffffffffffffffffffffffffffff16036100cd576040517f08c379a00000000000000000000000000000000000000000000000000000000081526004016100c49061075f565b60405180910390fd5b5f73ffffffffffffffffffffffffffffffffffffffff165f8054906101000a900473ffffffffffffffffffffffffffffffffffffffff1673ffffffffffffffffffffffffffffffffffffffff160361015a576040517f08c379a0000000000000000000000000000000000000000000000000000000008152600401610151906107c7565b60405180910390fd5b835f8054906101000a900473ffffffffffffffffffffffffffffffffffffffff1673ffffffffffffffffffffffffffffffffffffffff168173ffffffffffffffffffffffffffffffffffffffff16036101e8576040517f08c379a00000000000000000000000000000000000000000000000000000000081526004016101df90610855565b60405180910390fd5b3373ffffffffffffffffffffffffffffffffffffffff168573ffffffffffffffffffffffffffffffffffffffff1614610256576040517f08c379a000000000000000000000000000000000000000000000000000000000815260040161024d906108bd565b60405180910390fd5b5f3411610298576040517f08c379a000000000000000000000000000000000000000000000000000000000815260040161028f90610925565b60405180910390fd5b5f3490508573ffffffffffffffffffffffffffffffffffffffff163160015f8873ffffffffffffffffffffffffffffffffffffffff1673ffffffffffffffffffffffffffffffffffffffff1681526020019081526020015f20819055508060015f8873ffffffffffffffffffffffffffffffffffffffff1673ffffffffffffffffffffffffffffffffffffffff1681526020019081526020015f20541015610375576040517f08c379a000000000000000000000000000000000000000000000000000000000815260040161036c9061098d565b60405180910390fd5b5f8054906101000a900473ffffffffffffffffffffffffffffffffffffffff1673ffffffffffffffffffffffffffffffffffffffff163160015f805f9054906101000a900473ffffffffffffffffffffffffffffffffffffffff1673ffffffffffffffffffffffffffffffffffffffff1673ffffffffffffffffffffffffffffffffffffffff1681526020019081526020015f20819055508060015f8873ffffffffffffffffffffffffffffffffffffffff1673ffffffffffffffffffffffffffffffffffffffff1681526020019081526020015f205f82825461045991906109e1565b925050819055508060015f805f9054906101000a900473ffffffffffffffffffffffffffffffffffffffff1673ffffffffffffffffffffffffffffffffffffffff1673ffffffffffffffffffffffffffffffffffffffff1681526020019081526020015f205f8282546104cc9190610a14565b925050819055505f805f8054906101000a900473ffffffffffffffffffffffffffffffffffffffff1673ffffffffffffffffffffffffffffffffffffffff16346113889060405161051c90610a74565b5f60405180830381858888f193505050503d805f8114610557576040519150601f19603f3d011682016040523d82523d5f602084013e61055c565b606091505b50915091507fa11ed7be5216b1a7a0444283be90e7803e25be5498b718ec1bfb97f150ce596d8284604051610592929190610a97565b60405180910390a18181965096505050505050915091565b5f80fd5b5f73ffffffffffffffffffffffffffffffffffffffff82169050919050565b5f6105d7826105ae565b9050919050565b6105e7816105cd565b81146105f1575f80fd5b50565b5f81359050610602816105de565b92915050565b5f6020828403121561061d5761061c6105aa565b5b5f61062a848285016105f4565b91505092915050565b5f8115159050919050565b61064781610633565b82525050565b5f81519050919050565b5f82825260208201905092915050565b5f5b83811015610684578082015181840152602081019050610669565b5f8484015250505050565b5f601f19601f8301169050919050565b5f6106a98261064d565b6106b38185610657565b93506106c3818560208601610667565b6106cc8161068f565b840191505092915050565b5f6040820190506106ea5f83018561063e565b81810360208301526106fc818461069f565b90509392505050565b5f82825260208201905092915050565b7f73656e646572206164647265737320697320656d7074792e00000000000000005f82015250565b5f610749601883610705565b915061075482610715565b602082019050919050565b5f6020820190508181035f8301526107768161073d565b9050919050565b7f7265636569766572206164647265737320697320656d7074792e0000000000005f82015250565b5f6107b1601a83610705565b91506107bc8261077d565b602082019050919050565b5f6020820190508181035f8301526107de816107a5565b9050919050565b7f73656e6465722026207265636569766572206d757374206265206469666665725f8201527f656e742e00000000000000000000000000000000000000000000000000000000602082015250565b5f61083f602483610705565b915061084a826107e5565b604082019050919050565b5f6020820190508181035f83015261086c81610833565b9050919050565b7f6f6e6c79206f776e6572000000000000000000000000000000000000000000005f82015250565b5f6108a7600a83610705565b91506108b282610873565b602082019050919050565b5f6020820190508181035f8301526108d48161089b565b9050919050565b7f616d6f756e74206973206e6f74207a65726f00000000000000000000000000005f82015250565b5f61090f601283610705565b915061091a826108db565b602082019050919050565b5f6020820190508181035f83015261093c81610903565b9050919050565b7f6e6f7420656e6f7567682062616c616e636520746f207061792e0000000000005f82015250565b5f610977601a83610705565b915061098282610943565b602082019050919050565b5f6020820190508181035f8301526109a48161096b565b9050919050565b5f819050919050565b7f4e487b71000000000000000000000000000000000000000000000000000000005f52601160045260245ffd5b5f6109eb826109ab565b91506109f6836109ab565b9250828203905081811115610a0e57610a0d6109b4565b5b92915050565b5f610a1e826109ab565b9150610a29836109ab565b9250828201905080821115610a4157610a406109b4565b5b92915050565b5f81905092915050565b50565b5f610a5f5f83610a47565b9150610a6a82610a51565b5f82019050919050565b5f610a7e82610a54565b9150819050919050565b610a91816109ab565b82525050565b5f604082019050610aaa5f83018561063e565b610ab76020830184610a88565b939250505056fea2646970667358221220e2953b7124c147643a76c9ae2862c12d1f6a6d516da7c381bca0c051c60f4be564736f6c63430008140033",
  "immutableReferences": {},
  "source": "//SPDX-License-Identifier: MIT\npragma solidity ^0.8.19;\n\ncontract CryptoPay{\n\n    address payable _receiver;\n    mapping(address=>uint) balances;\n\n    constructor(address payable _receiverAddress){\n        _receiver=_receiverAddress;\n    }\n    event _transfer(bool _status, uint _amount);\n    modifier _isEmptyReceiver(){\n        require(_receiver!=address(0),\"receiver address is empty.\");\n        _;\n    }\n    modifier _isEmptySender(address sender){\n        require(sender!=address(0),\"sender address is empty.\");\n        _;\n    }\n    modifier _isEqual(address sender){\n        require(sender!=_receiver,\"sender & receiver must be different.\");\n        _;\n    }\n    \n    receive() external payable{}\n    fallback() external payable{}\n   \n    function _payment(address payable _sender) public payable _isEmptySender(_sender) _isEmptyReceiver() _isEqual(_sender) returns(bool ,bytes memory  ){\n        require(_sender==payable(msg.sender),\"only owner\");\n        require((msg.value)>0,\"amount is not zero\");\n        uint amount= msg.value;\n        balances[_sender]=_sender.balance;\n        require(balances[_sender]>=amount,\"not enough balance to pay.\");\n        balances[_receiver]=_receiver.balance;\n        balances[_sender]-=amount;\n        balances[_receiver]+=amount;\n        (bool flag,bytes memory _data)=_receiver.call{value:msg.value,gas:5000}(\"\");\n        emit _transfer(flag,amount);\n        return (flag,_data);\n    }\n   \n}",
  "sourcePath": "C:\\src\\blockchain\\demo\\contracts\\CryptoPay.sol",
  "compiler": {
    "name": "solc",
    "version": "0.8.20+commit.a1b79de6.Emscripten.clang"
  },
  "schemaVersion": "3.4.13",
  "updatedAt": "2023-05-24T08:04:42.579Z",
  "networkType": "ethereum",
  "devdoc": {
    "kind": "dev",
    "methods": {},
    "version": 1
  },
  "userdoc": {
    "kind": "user",
    "methods": {},
    "version": 1
  }
}