{
  "contractName": "CryptoPay",
  "abi": [
    {
      "inputs": [
        {
          "internalType": "address payable",
          "name": "_receiverAddress",
          "type": "address"
        }
      ],
      "stateMutability": "nonpayable",
      "type": "constructor"
    },
    {
      "anonymous": false,
      "inputs": [
        {
          "indexed": false,
          "internalType": "bool",
          "name": "_status",
          "type": "bool"
        },
        {
          "indexed": false,
          "internalType": "uint256",
          "name": "_amount",
          "type": "uint256"
        }
      ],
      "name": "_transfer",
      "type": "event"
    },
    {
      "stateMutability": "payable",
      "type": "fallback",
      "payable": true
    },
    {
      "stateMutability": "payable",
      "type": "receive",
      "payable": true
    },
    {
      "inputs": [
        {
          "internalType": "address payable",
          "name": "_sender",
          "type": "address"
        }
      ],
      "name": "_payment",
      "outputs": [
        {
          "internalType": "bool",
          "name": "",
          "type": "bool"
        },
        {
          "internalType": "bytes",
          "name": "",
          "type": "bytes"
        }
      ],
      "stateMutability": "payable",
      "type": "function",
      "payable": true
    },
    {
      "inputs": [
        {
          "internalType": "address",
          "name": "_address",
          "type": "address"
        }
      ],
      "name": "_getBalance",
      "outputs": [
        {
          "internalType": "uint256",
          "name": "_currentBalance",
          "type": "uint256"
        }
      ],
      "stateMutability": "view",
      "type": "function",
      "constant": true
    }
  ],
  "bytecode": "0x608060405234801561000f575f80fd5b50604051610ce9380380610ce9833981810160405281019061003191906100d4565b805f806101000a81548173ffffffffffffffffffffffffffffffffffffffff021916908373ffffffffffffffffffffffffffffffffffffffff160217905550506100ff565b5f80fd5b5f73ffffffffffffffffffffffffffffffffffffffff82169050919050565b5f6100a38261007a565b9050919050565b6100b381610099565b81146100bd575f80fd5b50565b5f815190506100ce816100aa565b92915050565b5f602082840312156100e9576100e8610076565b5b5f6100f6848285016100c0565b91505092915050565b610bdd8061010c5f395ff3fe60806040526004361061002c575f3560e01c806337c6107f14610035578063ee21aa641461006657610033565b3661003357005b005b61004f600480360381019061004a9190610672565b6100a2565b60405161005d929190610741565b60405180910390f35b348015610071575f80fd5b5061008c600480360381019061008791906107aa565b6105f4565b60405161009991906107ed565b60405180910390f35b5f6060825f73ffffffffffffffffffffffffffffffffffffffff168173ffffffffffffffffffffffffffffffffffffffff1603610114576040517f08c379a000000000000000000000000000000000000000000000000000000000815260040161010b90610860565b60405180910390fd5b5f8054906101000a900473ffffffffffffffffffffffffffffffffffffffff165f73ffffffffffffffffffffffffffffffffffffffff168173ffffffffffffffffffffffffffffffffffffffff16036101a2576040517f08c379a0000000000000000000000000000000000000000000000000000000008152600401610199906108c8565b60405180910390fd5b845f8054906101000a900473ffffffffffffffffffffffffffffffffffffffff168073ffffffffffffffffffffffffffffffffffffffff168273ffffffffffffffffffffffffffffffffffffffff1603610231576040517f08c379a000000000000000000000000000000000000000000000000000000000815260040161022890610956565b60405180910390fd5b3373ffffffffffffffffffffffffffffffffffffffff168773ffffffffffffffffffffffffffffffffffffffff161461029f576040517f08c379a0000000000000000000000000000000000000000000000000000000008152600401610296906109be565b60405180910390fd5b5f34116102e1576040517f08c379a00000000000000000000000000000000000000000000000000000000081526004016102d890610a26565b60405180910390fd5b5f3490508773ffffffffffffffffffffffffffffffffffffffff163160015f8a73ffffffffffffffffffffffffffffffffffffffff1673ffffffffffffffffffffffffffffffffffffffff1681526020019081526020015f20819055508060015f8a73ffffffffffffffffffffffffffffffffffffffff1673ffffffffffffffffffffffffffffffffffffffff1681526020019081526020015f205410156103be576040517f08c379a00000000000000000000000000000000000000000000000000000000081526004016103b590610a8e565b60405180910390fd5b5f8054906101000a900473ffffffffffffffffffffffffffffffffffffffff1673ffffffffffffffffffffffffffffffffffffffff163160015f805f9054906101000a900473ffffffffffffffffffffffffffffffffffffffff1673ffffffffffffffffffffffffffffffffffffffff1673ffffffffffffffffffffffffffffffffffffffff1681526020019081526020015f20819055508060015f8a73ffffffffffffffffffffffffffffffffffffffff1673ffffffffffffffffffffffffffffffffffffffff1681526020019081526020015f205f8282546104a29190610ad9565b925050819055508060015f805f9054906101000a900473ffffffffffffffffffffffffffffffffffffffff1673ffffffffffffffffffffffffffffffffffffffff1673ffffffffffffffffffffffffffffffffffffffff1681526020019081526020015f205f8282546105159190610b0c565b925050819055505f805f8054906101000a900473ffffffffffffffffffffffffffffffffffffffff1673ffffffffffffffffffffffffffffffffffffffff1661c3503460405161056490610b6c565b5f60405180830381858888f193505050503d805f811461059f576040519150601f19603f3d011682016040523d82523d5f602084013e6105a4565b606091505b50915091507fa11ed7be5216b1a7a0444283be90e7803e25be5498b718ec1bfb97f150ce596d82846040516105da929190610b80565b60405180910390a181819850985050505050505050915091565b5f8173ffffffffffffffffffffffffffffffffffffffff16319050919050565b5f80fd5b5f73ffffffffffffffffffffffffffffffffffffffff82169050919050565b5f61064182610618565b9050919050565b61065181610637565b811461065b575f80fd5b50565b5f8135905061066c81610648565b92915050565b5f6020828403121561068757610686610614565b5b5f6106948482850161065e565b91505092915050565b5f8115159050919050565b6106b18161069d565b82525050565b5f81519050919050565b5f82825260208201905092915050565b5f5b838110156106ee5780820151818401526020810190506106d3565b5f8484015250505050565b5f601f19601f8301169050919050565b5f610713826106b7565b61071d81856106c1565b935061072d8185602086016106d1565b610736816106f9565b840191505092915050565b5f6040820190506107545f8301856106a8565b81810360208301526107668184610709565b90509392505050565b5f61077982610618565b9050919050565b6107898161076f565b8114610793575f80fd5b50565b5f813590506107a481610780565b92915050565b5f602082840312156107bf576107be610614565b5b5f6107cc84828501610796565b91505092915050565b5f819050919050565b6107e7816107d5565b82525050565b5f6020820190506108005f8301846107de565b92915050565b5f82825260208201905092915050565b7f73656e646572206164647265737320697320656d7074792e00000000000000005f82015250565b5f61084a601883610806565b915061085582610816565b602082019050919050565b5f6020820190508181035f8301526108778161083e565b9050919050565b7f7265636569766572206164647265737320697320656d7074792e0000000000005f82015250565b5f6108b2601a83610806565b91506108bd8261087e565b602082019050919050565b5f6020820190508181035f8301526108df816108a6565b9050919050565b7f73656e6465722026207265636569766572206d757374206265206469666665725f8201527f656e742e00000000000000000000000000000000000000000000000000000000602082015250565b5f610940602483610806565b915061094b826108e6565b604082019050919050565b5f6020820190508181035f83015261096d81610934565b9050919050565b7f6f6e6c79206f776e6572000000000000000000000000000000000000000000005f82015250565b5f6109a8600a83610806565b91506109b382610974565b602082019050919050565b5f6020820190508181035f8301526109d58161099c565b9050919050565b7f616d6f756e74206973206e6f74207a65726f00000000000000000000000000005f82015250565b5f610a10601283610806565b9150610a1b826109dc565b602082019050919050565b5f6020820190508181035f830152610a3d81610a04565b9050919050565b7f6e6f7420656e6f7567682062616c616e636520746f207061792e0000000000005f82015250565b5f610a78601a83610806565b9150610a8382610a44565b602082019050919050565b5f6020820190508181035f830152610aa581610a6c565b9050919050565b7f4e487b71000000000000000000000000000000000000000000000000000000005f52601160045260245ffd5b5f610ae3826107d5565b9150610aee836107d5565b9250828203905081811115610b0657610b05610aac565b5b92915050565b5f610b16826107d5565b9150610b21836107d5565b9250828201905080821115610b3957610b38610aac565b5b92915050565b5f81905092915050565b50565b5f610b575f83610b3f565b9150610b6282610b49565b5f82019050919050565b5f610b7682610b4c565b9150819050919050565b5f604082019050610b935f8301856106a8565b610ba060208301846107de565b939250505056fea26469706673582212201f6b81652423026325e1eb99413bb8958c7584f67e49ff7082cc38e4a8784fbe64736f6c63430008140033",
  "immutableReferences": {},
  "source": "//SPDX-License-Identifier: MIT\npragma solidity ^0.8.19;\n\ncontract CryptoPay{\n\n    address payable _receiver;\n    mapping(address=>uint) balances;\n\n    event _transfer(bool _status, uint _amount);\n   \n    modifier _isEmptyReceiver(address receiver){\n        require(receiver!=address(0),\"receiver address is empty.\");\n        _;\n    }\n    modifier _isEmptySender(address sender){\n        require(sender!=address(0),\"sender address is empty.\");\n        _;\n    }\n    modifier _isEqual(address sender,address receiver){\n        require(sender!=receiver,\"sender & receiver must be different.\");\n        _;\n    }\n    constructor(address payable _receiverAddress){\n        _receiver=_receiverAddress;\n    }\n    receive() external payable{}\n    fallback() external payable{}\n   \n    function _payment(address payable _sender) public payable _isEmptySender(_sender) _isEmptyReceiver(_receiver) _isEqual(_sender,_receiver) returns(bool ,bytes memory){\n        require(_sender==payable(msg.sender),\"only owner\");\n        require(msg.value>0,\"amount is not zero\");\n        uint amount= msg.value;\n        balances[_sender]=_sender.balance;\n        require(balances[_sender]>=amount,\"not enough balance to pay.\");\n        balances[_receiver]=_receiver.balance;\n        balances[_sender]-=amount;\n        balances[_receiver]+=amount;\n        (bool flag,bytes memory _data)=_receiver.call{gas:50000,value:msg.value}(\"\");\n        emit _transfer(flag,amount);\n        return (flag,_data);\n    }\n    function _getBalance(address _address) public view returns(uint _currentBalance){\n        return (_address.balance); \n    }\n   \n}",
  "sourcePath": "C:\\src\\blockchain\\demo\\contracts\\CryptoPay.sol",
  "compiler": {
    "name": "solc",
    "version": "0.8.20+commit.a1b79de6.Emscripten.clang"
  },
  "schemaVersion": "3.4.13",
  "updatedAt": "2023-05-19T07:24:43.851Z",
  "networkType": "ethereum",
  "devdoc": {
    "kind": "dev",
    "methods": {},
    "version": 1
  },
  "userdoc": {
    "kind": "user",
    "methods": {},
    "version": 1
  }
}