{
  "contractName": "CryptoPay",
  "abi": [
    {
      "anonymous": false,
      "inputs": [
        {
          "indexed": false,
          "internalType": "bool",
          "name": "_status",
          "type": "bool"
        },
        {
          "indexed": false,
          "internalType": "bytes",
          "name": "_data",
          "type": "bytes"
        }
      ],
      "name": "_failedTransfer",
      "type": "event"
    },
    {
      "anonymous": false,
      "inputs": [
        {
          "indexed": false,
          "internalType": "bool",
          "name": "_status",
          "type": "bool"
        },
        {
          "indexed": false,
          "internalType": "uint256",
          "name": "_amount",
          "type": "uint256"
        }
      ],
      "name": "_transfer",
      "type": "event"
    },
    {
      "stateMutability": "payable",
      "type": "fallback",
      "payable": true
    },
    {
      "stateMutability": "payable",
      "type": "receive",
      "payable": true
    },
    {
      "inputs": [
        {
          "internalType": "address payable",
          "name": "_sender",
          "type": "address"
        },
        {
          "internalType": "address payable",
          "name": "_receiver",
          "type": "address"
        }
      ],
      "name": "_payment",
      "outputs": [],
      "stateMutability": "payable",
      "type": "function",
      "payable": true
    },
    {
      "inputs": [
        {
          "internalType": "address",
          "name": "_address",
          "type": "address"
        }
      ],
      "name": "_getBalance",
      "outputs": [
        {
          "internalType": "uint256",
          "name": "_currentBalance",
          "type": "uint256"
        }
      ],
      "stateMutability": "view",
      "type": "function",
      "constant": true
    }
  ],
  "bytecode": "0x608060405234801561000f575f80fd5b50610b5b8061001d5f395ff3fe60806040526004361061002c575f3560e01c80632b393fdd14610035578063ee21aa641461005157610033565b3661003357005b005b61004f600480360381019061004a91906105dd565b61008d565b005b34801561005c575f80fd5b5061007760048036038101906100729190610656565b61055f565b6040516100849190610699565b60405180910390f35b815f73ffffffffffffffffffffffffffffffffffffffff168173ffffffffffffffffffffffffffffffffffffffff16036100fc576040517f08c379a00000000000000000000000000000000000000000000000000000000081526004016100f39061070c565b60405180910390fd5b815f73ffffffffffffffffffffffffffffffffffffffff168173ffffffffffffffffffffffffffffffffffffffff160361016b576040517f08c379a000000000000000000000000000000000000000000000000000000000815260040161016290610774565b60405180910390fd5b83838073ffffffffffffffffffffffffffffffffffffffff168273ffffffffffffffffffffffffffffffffffffffff16036101db576040517f08c379a00000000000000000000000000000000000000000000000000000000081526004016101d290610802565b60405180910390fd5b3373ffffffffffffffffffffffffffffffffffffffff168673ffffffffffffffffffffffffffffffffffffffff1614610249576040517f08c379a00000000000000000000000000000000000000000000000000000000081526004016102409061086a565b60405180910390fd5b5f341161028b576040517f08c379a0000000000000000000000000000000000000000000000000000000008152600401610282906108d2565b60405180910390fd5b5f3490508673ffffffffffffffffffffffffffffffffffffffff16315f808973ffffffffffffffffffffffffffffffffffffffff1673ffffffffffffffffffffffffffffffffffffffff1681526020019081526020015f2081905550805f808973ffffffffffffffffffffffffffffffffffffffff1673ffffffffffffffffffffffffffffffffffffffff1681526020019081526020015f20541015610366576040517f08c379a000000000000000000000000000000000000000000000000000000000815260040161035d9061093a565b60405180910390fd5b8573ffffffffffffffffffffffffffffffffffffffff16315f808873ffffffffffffffffffffffffffffffffffffffff1673ffffffffffffffffffffffffffffffffffffffff1681526020019081526020015f2081905550805f808973ffffffffffffffffffffffffffffffffffffffff1673ffffffffffffffffffffffffffffffffffffffff1681526020019081526020015f205f8282546104099190610985565b92505081905550805f808873ffffffffffffffffffffffffffffffffffffffff1673ffffffffffffffffffffffffffffffffffffffff1681526020019081526020015f205f82825461045b91906109b8565b925050819055505f808773ffffffffffffffffffffffffffffffffffffffff1661c3503460405161048b90610a18565b5f60405180830381858888f193505050503d805f81146104c6576040519150601f19603f3d011682016040523d82523d5f602084013e6104cb565b606091505b5091509150600115158215150361051a577fa11ed7be5216b1a7a0444283be90e7803e25be5498b718ec1bfb97f150ce596d828460405161050d929190610a46565b60405180910390a1610554565b7ff24d4770909ec8ccc27d816e8cfa2fd48daa4407dd7d4bef1716b0c640b28b84828260405161054b929190610af7565b60405180910390a15b505050505050505050565b5f8173ffffffffffffffffffffffffffffffffffffffff16319050919050565b5f80fd5b5f73ffffffffffffffffffffffffffffffffffffffff82169050919050565b5f6105ac82610583565b9050919050565b6105bc816105a2565b81146105c6575f80fd5b50565b5f813590506105d7816105b3565b92915050565b5f80604083850312156105f3576105f261057f565b5b5f610600858286016105c9565b9250506020610611858286016105c9565b9150509250929050565b5f61062582610583565b9050919050565b6106358161061b565b811461063f575f80fd5b50565b5f813590506106508161062c565b92915050565b5f6020828403121561066b5761066a61057f565b5b5f61067884828501610642565b91505092915050565b5f819050919050565b61069381610681565b82525050565b5f6020820190506106ac5f83018461068a565b92915050565b5f82825260208201905092915050565b7f73656e646572206164647265737320697320656d7074792e00000000000000005f82015250565b5f6106f66018836106b2565b9150610701826106c2565b602082019050919050565b5f6020820190508181035f830152610723816106ea565b9050919050565b7f7265636569766572206164647265737320697320656d7074792e0000000000005f82015250565b5f61075e601a836106b2565b91506107698261072a565b602082019050919050565b5f6020820190508181035f83015261078b81610752565b9050919050565b7f73656e6465722026207265636569766572206d757374206265206469666665725f8201527f656e742e00000000000000000000000000000000000000000000000000000000602082015250565b5f6107ec6024836106b2565b91506107f782610792565b604082019050919050565b5f6020820190508181035f830152610819816107e0565b9050919050565b7f6f6e6c79206f776e6572000000000000000000000000000000000000000000005f82015250565b5f610854600a836106b2565b915061085f82610820565b602082019050919050565b5f6020820190508181035f83015261088181610848565b9050919050565b7f616d6f756e74206973206e6f74207a65726f00000000000000000000000000005f82015250565b5f6108bc6012836106b2565b91506108c782610888565b602082019050919050565b5f6020820190508181035f8301526108e9816108b0565b9050919050565b7f6e6f7420656e6f7567682062616c616e636520746f207061792e0000000000005f82015250565b5f610924601a836106b2565b915061092f826108f0565b602082019050919050565b5f6020820190508181035f83015261095181610918565b9050919050565b7f4e487b71000000000000000000000000000000000000000000000000000000005f52601160045260245ffd5b5f61098f82610681565b915061099a83610681565b92508282039050818111156109b2576109b1610958565b5b92915050565b5f6109c282610681565b91506109cd83610681565b92508282019050808211156109e5576109e4610958565b5b92915050565b5f81905092915050565b50565b5f610a035f836109eb565b9150610a0e826109f5565b5f82019050919050565b5f610a22826109f8565b9150819050919050565b5f8115159050919050565b610a4081610a2c565b82525050565b5f604082019050610a595f830185610a37565b610a66602083018461068a565b9392505050565b5f81519050919050565b5f82825260208201905092915050565b5f5b83811015610aa4578082015181840152602081019050610a89565b5f8484015250505050565b5f601f19601f8301169050919050565b5f610ac982610a6d565b610ad38185610a77565b9350610ae3818560208601610a87565b610aec81610aaf565b840191505092915050565b5f604082019050610b0a5f830185610a37565b8181036020830152610b1c8184610abf565b9050939250505056fea2646970667358221220324bef1caf8d0e539503c9fc0f820edaf688300ec70bd79c017a1b97b16ca04264736f6c63430008140033",
  "immutableReferences": {},
  "source": "//SPDX-License-Identifier: MIT\npragma solidity ^0.8.19;\n\ncontract CryptoPay{\n\n    mapping(address=>uint) balances;\n\n    event _transfer(bool _status, uint _amount);\n    event _failedTransfer(bool _status,bytes _data);\n\n    modifier _isEmptyReceiver(address receiver){\n        require(receiver!=address(0),\"receiver address is empty.\");\n        _;\n    }\n    modifier _isEmptySender(address sender){\n        require(sender!=address(0),\"sender address is empty.\");\n        _;\n    }\n    modifier _isEqual(address sender,address receiver){\n        require(sender!=receiver,\"sender & receiver must be different.\");\n        _;\n    }\n\n    receive() external payable{}\n    fallback() external payable{}\n   \n    function _payment(address payable _sender, address payable _receiver) public payable _isEmptySender(_sender) _isEmptyReceiver(_receiver) _isEqual(_sender,_receiver){\n        require(_sender==payable(msg.sender),\"only owner\");\n        require(msg.value>0,\"amount is not zero\");\n        uint amount= msg.value;\n        balances[_sender]=_sender.balance;\n        require(balances[_sender]>=amount,\"not enough balance to pay.\");\n        balances[_receiver]=_receiver.balance;\n        balances[_sender]-=amount;\n        balances[_receiver]+=amount;\n        (bool flag,bytes memory _data)=_receiver.call{gas:50000,value:msg.value}(\"\");\n        if(flag==true){\n            emit _transfer(flag,amount);\n        }\n        else{\n            emit _failedTransfer(flag,_data);\n        }\n        // return (flag,_data);\n    }\n    function _getBalance(address _address) public view returns(uint _currentBalance){\n        return (_address.balance); \n    }\n   \n}",
  "sourcePath": "C:\\src\\blockchain\\demo\\contracts\\CryptoPay.sol",
  "compiler": {
    "name": "solc",
    "version": "0.8.20+commit.a1b79de6.Emscripten.clang"
  },
  "schemaVersion": "3.4.13",
  "updatedAt": "2023-05-19T06:32:41.258Z",
  "networkType": "ethereum",
  "devdoc": {
    "kind": "dev",
    "methods": {},
    "version": 1
  },
  "userdoc": {
    "kind": "user",
    "methods": {},
    "version": 1
  }
}