{
  "contractName": "CryptoPay",
  "abi": [
    {
      "inputs": [
        {
          "internalType": "address payable",
          "name": "_receiverAddress",
          "type": "address"
        }
      ],
      "stateMutability": "nonpayable",
      "type": "constructor"
    },
    {
      "anonymous": false,
      "inputs": [
        {
          "indexed": false,
          "internalType": "bool",
          "name": "_status",
          "type": "bool"
        },
        {
          "indexed": false,
          "internalType": "uint256",
          "name": "_amount",
          "type": "uint256"
        }
      ],
      "name": "_transfer",
      "type": "event"
    },
    {
      "stateMutability": "payable",
      "type": "fallback",
      "payable": true
    },
    {
      "stateMutability": "payable",
      "type": "receive",
      "payable": true
    },
    {
      "inputs": [
        {
          "internalType": "address payable",
          "name": "_sender",
          "type": "address"
        }
      ],
      "name": "_payment",
      "outputs": [
        {
          "internalType": "bool",
          "name": "",
          "type": "bool"
        },
        {
          "internalType": "bytes",
          "name": "",
          "type": "bytes"
        }
      ],
      "stateMutability": "payable",
      "type": "function",
      "payable": true
    },
    {
      "inputs": [
        {
          "internalType": "address",
          "name": "_address",
          "type": "address"
        }
      ],
      "name": "_getBalance",
      "outputs": [
        {
          "internalType": "uint256",
          "name": "_currentBalance",
          "type": "uint256"
        }
      ],
      "stateMutability": "view",
      "type": "function",
      "constant": true
    }
  ],
  "bytecode": "0x608060405234801561000f575f80fd5b50604051610ce5380380610ce5833981810160405281019061003191906100d4565b805f806101000a81548173ffffffffffffffffffffffffffffffffffffffff021916908373ffffffffffffffffffffffffffffffffffffffff160217905550506100ff565b5f80fd5b5f73ffffffffffffffffffffffffffffffffffffffff82169050919050565b5f6100a38261007a565b9050919050565b6100b381610099565b81146100bd575f80fd5b50565b5f815190506100ce816100aa565b92915050565b5f602082840312156100e9576100e8610076565b5b5f6100f6848285016100c0565b91505092915050565b610bd98061010c5f395ff3fe60806040526004361061002c575f3560e01c806337c6107f14610035578063ee21aa641461006657610033565b3661003357005b005b61004f600480360381019061004a919061066e565b6100a2565b60405161005d92919061073d565b60405180910390f35b348015610071575f80fd5b5061008c600480360381019061008791906107a6565b6105f0565b60405161009991906107e9565b60405180910390f35b5f6060825f73ffffffffffffffffffffffffffffffffffffffff168173ffffffffffffffffffffffffffffffffffffffff1603610114576040517f08c379a000000000000000000000000000000000000000000000000000000000815260040161010b9061085c565b60405180910390fd5b5f73ffffffffffffffffffffffffffffffffffffffff165f8054906101000a900473ffffffffffffffffffffffffffffffffffffffff1673ffffffffffffffffffffffffffffffffffffffff16036101a1576040517f08c379a0000000000000000000000000000000000000000000000000000000008152600401610198906108c4565b60405180910390fd5b835f8054906101000a900473ffffffffffffffffffffffffffffffffffffffff1673ffffffffffffffffffffffffffffffffffffffff168173ffffffffffffffffffffffffffffffffffffffff160361022f576040517f08c379a000000000000000000000000000000000000000000000000000000000815260040161022690610952565b60405180910390fd5b3373ffffffffffffffffffffffffffffffffffffffff168573ffffffffffffffffffffffffffffffffffffffff161461029d576040517f08c379a0000000000000000000000000000000000000000000000000000000008152600401610294906109ba565b60405180910390fd5b5f34116102df576040517f08c379a00000000000000000000000000000000000000000000000000000000081526004016102d690610a22565b60405180910390fd5b5f3490508573ffffffffffffffffffffffffffffffffffffffff163160015f8873ffffffffffffffffffffffffffffffffffffffff1673ffffffffffffffffffffffffffffffffffffffff1681526020019081526020015f20819055508060015f8873ffffffffffffffffffffffffffffffffffffffff1673ffffffffffffffffffffffffffffffffffffffff1681526020019081526020015f205410156103bc576040517f08c379a00000000000000000000000000000000000000000000000000000000081526004016103b390610a8a565b60405180910390fd5b5f8054906101000a900473ffffffffffffffffffffffffffffffffffffffff1673ffffffffffffffffffffffffffffffffffffffff163160015f805f9054906101000a900473ffffffffffffffffffffffffffffffffffffffff1673ffffffffffffffffffffffffffffffffffffffff1673ffffffffffffffffffffffffffffffffffffffff1681526020019081526020015f20819055508060015f8873ffffffffffffffffffffffffffffffffffffffff1673ffffffffffffffffffffffffffffffffffffffff1681526020019081526020015f205f8282546104a09190610ad5565b925050819055508060015f805f9054906101000a900473ffffffffffffffffffffffffffffffffffffffff1673ffffffffffffffffffffffffffffffffffffffff1673ffffffffffffffffffffffffffffffffffffffff1681526020019081526020015f205f8282546105139190610b08565b925050819055505f805f8054906101000a900473ffffffffffffffffffffffffffffffffffffffff1673ffffffffffffffffffffffffffffffffffffffff1661c3503460405161056290610b68565b5f60405180830381858888f193505050503d805f811461059d576040519150601f19603f3d011682016040523d82523d5f602084013e6105a2565b606091505b50915091507fa11ed7be5216b1a7a0444283be90e7803e25be5498b718ec1bfb97f150ce596d82846040516105d8929190610b7c565b60405180910390a18181965096505050505050915091565b5f8173ffffffffffffffffffffffffffffffffffffffff16319050919050565b5f80fd5b5f73ffffffffffffffffffffffffffffffffffffffff82169050919050565b5f61063d82610614565b9050919050565b61064d81610633565b8114610657575f80fd5b50565b5f8135905061066881610644565b92915050565b5f6020828403121561068357610682610610565b5b5f6106908482850161065a565b91505092915050565b5f8115159050919050565b6106ad81610699565b82525050565b5f81519050919050565b5f82825260208201905092915050565b5f5b838110156106ea5780820151818401526020810190506106cf565b5f8484015250505050565b5f601f19601f8301169050919050565b5f61070f826106b3565b61071981856106bd565b93506107298185602086016106cd565b610732816106f5565b840191505092915050565b5f6040820190506107505f8301856106a4565b81810360208301526107628184610705565b90509392505050565b5f61077582610614565b9050919050565b6107858161076b565b811461078f575f80fd5b50565b5f813590506107a08161077c565b92915050565b5f602082840312156107bb576107ba610610565b5b5f6107c884828501610792565b91505092915050565b5f819050919050565b6107e3816107d1565b82525050565b5f6020820190506107fc5f8301846107da565b92915050565b5f82825260208201905092915050565b7f73656e646572206164647265737320697320656d7074792e00000000000000005f82015250565b5f610846601883610802565b915061085182610812565b602082019050919050565b5f6020820190508181035f8301526108738161083a565b9050919050565b7f7265636569766572206164647265737320697320656d7074792e0000000000005f82015250565b5f6108ae601a83610802565b91506108b98261087a565b602082019050919050565b5f6020820190508181035f8301526108db816108a2565b9050919050565b7f73656e6465722026207265636569766572206d757374206265206469666665725f8201527f656e742e00000000000000000000000000000000000000000000000000000000602082015250565b5f61093c602483610802565b9150610947826108e2565b604082019050919050565b5f6020820190508181035f83015261096981610930565b9050919050565b7f6f6e6c79206f776e6572000000000000000000000000000000000000000000005f82015250565b5f6109a4600a83610802565b91506109af82610970565b602082019050919050565b5f6020820190508181035f8301526109d181610998565b9050919050565b7f616d6f756e74206973206e6f74207a65726f00000000000000000000000000005f82015250565b5f610a0c601283610802565b9150610a17826109d8565b602082019050919050565b5f6020820190508181035f830152610a3981610a00565b9050919050565b7f6e6f7420656e6f7567682062616c616e636520746f207061792e0000000000005f82015250565b5f610a74601a83610802565b9150610a7f82610a40565b602082019050919050565b5f6020820190508181035f830152610aa181610a68565b9050919050565b7f4e487b71000000000000000000000000000000000000000000000000000000005f52601160045260245ffd5b5f610adf826107d1565b9150610aea836107d1565b9250828203905081811115610b0257610b01610aa8565b5b92915050565b5f610b12826107d1565b9150610b1d836107d1565b9250828201905080821115610b3557610b34610aa8565b5b92915050565b5f81905092915050565b50565b5f610b535f83610b3b565b9150610b5e82610b45565b5f82019050919050565b5f610b7282610b48565b9150819050919050565b5f604082019050610b8f5f8301856106a4565b610b9c60208301846107da565b939250505056fea2646970667358221220fb616afdb9a30a34f3b34b4ad5ff0b6522eb213e816b5a0f36d9bab26c8a241964736f6c63430008140033",
  "immutableReferences": {},
  "source": "//SPDX-License-Identifier: MIT\npragma solidity ^0.8.19;\n\ncontract CryptoPay{\n\n    address payable _receiver;\n    mapping(address=>uint) balances;\n\n    event _transfer(bool _status, uint _amount);\n   \n    modifier _isEmptyReceiver(){\n        require(_receiver!=address(0),\"receiver address is empty.\");\n        _;\n    }\n    modifier _isEmptySender(address sender){\n        require(sender!=address(0),\"sender address is empty.\");\n        _;\n    }\n    modifier _isEqual(address sender){\n        require(sender!=_receiver,\"sender & receiver must be different.\");\n        _;\n    }\n    constructor(address payable _receiverAddress){\n        _receiver=_receiverAddress;\n    }\n    receive() external payable{}\n    fallback() external payable{}\n   \n    function _payment(address payable _sender) public payable _isEmptySender(_sender) _isEmptyReceiver() _isEqual(_sender) returns(bool ,bytes memory){\n        require(_sender==payable(msg.sender),\"only owner\");\n        require(msg.value>0,\"amount is not zero\");\n        uint amount= msg.value;\n        balances[_sender]=_sender.balance;\n        require(balances[_sender]>=amount,\"not enough balance to pay.\");\n        balances[_receiver]=_receiver.balance;\n        balances[_sender]-=amount;\n        balances[_receiver]+=amount;\n        (bool flag,bytes memory _data)=_receiver.call{gas:50000,value:msg.value}(\"\");\n        emit _transfer(flag,amount);\n        return (flag,_data);\n    }\n    function _getBalance(address _address) public view returns(uint _currentBalance){\n        return (_address.balance); \n    }\n   \n}",
  "sourcePath": "C:\\src\\blockchain\\demo\\contracts\\CryptoPay.sol",
  "compiler": {
    "name": "solc",
    "version": "0.8.20+commit.a1b79de6.Emscripten.clang"
  },
  "schemaVersion": "3.4.13",
  "updatedAt": "2023-05-19T07:34:29.424Z",
  "networkType": "ethereum",
  "devdoc": {
    "kind": "dev",
    "methods": {},
    "version": 1
  },
  "userdoc": {
    "kind": "user",
    "methods": {},
    "version": 1
  }
}