{
  "contractName": "CryptoPay",
  "abi": [
    {
      "anonymous": false,
      "inputs": [
        {
          "indexed": false,
          "internalType": "bool",
          "name": "_status",
          "type": "bool"
        },
        {
          "indexed": false,
          "internalType": "uint256",
          "name": "_amount",
          "type": "uint256"
        }
      ],
      "name": "_transfer",
      "type": "event"
    },
    {
      "stateMutability": "payable",
      "type": "fallback",
      "payable": true
    },
    {
      "stateMutability": "payable",
      "type": "receive",
      "payable": true
    },
    {
      "inputs": [
        {
          "internalType": "address payable",
          "name": "_sender",
          "type": "address"
        },
        {
          "internalType": "address payable",
          "name": "_receiver",
          "type": "address"
        }
      ],
      "name": "_payment",
      "outputs": [
        {
          "internalType": "bool",
          "name": "",
          "type": "bool"
        },
        {
          "internalType": "bytes",
          "name": "",
          "type": "bytes"
        }
      ],
      "stateMutability": "payable",
      "type": "function",
      "payable": true
    },
    {
      "inputs": [
        {
          "internalType": "address",
          "name": "_address",
          "type": "address"
        }
      ],
      "name": "_getBalance",
      "outputs": [
        {
          "internalType": "uint256",
          "name": "_currentBalance",
          "type": "uint256"
        }
      ],
      "stateMutability": "view",
      "type": "function",
      "constant": true
    }
  ],
  "bytecode": "0x608060405234801561000f575f80fd5b50610b318061001d5f395ff3fe60806040526004361061002c575f3560e01c80632b393fdd14610035578063ee21aa641461006657610033565b3661003357005b005b61004f600480360381019061004a91906105b3565b6100a2565b60405161005d929190610695565b60405180910390f35b348015610071575f80fd5b5061008c600480360381019061008791906106fe565b610535565b6040516100999190610741565b60405180910390f35b5f6060835f73ffffffffffffffffffffffffffffffffffffffff168173ffffffffffffffffffffffffffffffffffffffff1603610114576040517f08c379a000000000000000000000000000000000000000000000000000000000815260040161010b906107b4565b60405180910390fd5b835f73ffffffffffffffffffffffffffffffffffffffff168173ffffffffffffffffffffffffffffffffffffffff1603610183576040517f08c379a000000000000000000000000000000000000000000000000000000000815260040161017a9061081c565b60405180910390fd5b85858073ffffffffffffffffffffffffffffffffffffffff168273ffffffffffffffffffffffffffffffffffffffff16036101f3576040517f08c379a00000000000000000000000000000000000000000000000000000000081526004016101ea906108aa565b60405180910390fd5b3373ffffffffffffffffffffffffffffffffffffffff168873ffffffffffffffffffffffffffffffffffffffff1614610261576040517f08c379a000000000000000000000000000000000000000000000000000000000815260040161025890610912565b60405180910390fd5b5f34116102a3576040517f08c379a000000000000000000000000000000000000000000000000000000000815260040161029a9061097a565b60405180910390fd5b5f3490508873ffffffffffffffffffffffffffffffffffffffff16315f808b73ffffffffffffffffffffffffffffffffffffffff1673ffffffffffffffffffffffffffffffffffffffff1681526020019081526020015f2081905550805f808b73ffffffffffffffffffffffffffffffffffffffff1673ffffffffffffffffffffffffffffffffffffffff1681526020019081526020015f2054101561037e576040517f08c379a0000000000000000000000000000000000000000000000000000000008152600401610375906109e2565b60405180910390fd5b8773ffffffffffffffffffffffffffffffffffffffff16315f808a73ffffffffffffffffffffffffffffffffffffffff1673ffffffffffffffffffffffffffffffffffffffff1681526020019081526020015f2081905550805f808b73ffffffffffffffffffffffffffffffffffffffff1673ffffffffffffffffffffffffffffffffffffffff1681526020019081526020015f205f8282546104219190610a2d565b92505081905550805f808a73ffffffffffffffffffffffffffffffffffffffff1673ffffffffffffffffffffffffffffffffffffffff1681526020019081526020015f205f8282546104739190610a60565b925050819055505f808973ffffffffffffffffffffffffffffffffffffffff1661c350346040516104a390610ac0565b5f60405180830381858888f193505050503d805f81146104de576040519150601f19603f3d011682016040523d82523d5f602084013e6104e3565b606091505b50915091507fa11ed7be5216b1a7a0444283be90e7803e25be5498b718ec1bfb97f150ce596d8284604051610519929190610ad4565b60405180910390a1818198509850505050505050509250929050565b5f8173ffffffffffffffffffffffffffffffffffffffff16319050919050565b5f80fd5b5f73ffffffffffffffffffffffffffffffffffffffff82169050919050565b5f61058282610559565b9050919050565b61059281610578565b811461059c575f80fd5b50565b5f813590506105ad81610589565b92915050565b5f80604083850312156105c9576105c8610555565b5b5f6105d68582860161059f565b92505060206105e78582860161059f565b9150509250929050565b5f8115159050919050565b610605816105f1565b82525050565b5f81519050919050565b5f82825260208201905092915050565b5f5b83811015610642578082015181840152602081019050610627565b5f8484015250505050565b5f601f19601f8301169050919050565b5f6106678261060b565b6106718185610615565b9350610681818560208601610625565b61068a8161064d565b840191505092915050565b5f6040820190506106a85f8301856105fc565b81810360208301526106ba818461065d565b90509392505050565b5f6106cd82610559565b9050919050565b6106dd816106c3565b81146106e7575f80fd5b50565b5f813590506106f8816106d4565b92915050565b5f6020828403121561071357610712610555565b5b5f610720848285016106ea565b91505092915050565b5f819050919050565b61073b81610729565b82525050565b5f6020820190506107545f830184610732565b92915050565b5f82825260208201905092915050565b7f73656e646572206164647265737320697320656d7074792e00000000000000005f82015250565b5f61079e60188361075a565b91506107a98261076a565b602082019050919050565b5f6020820190508181035f8301526107cb81610792565b9050919050565b7f7265636569766572206164647265737320697320656d7074792e0000000000005f82015250565b5f610806601a8361075a565b9150610811826107d2565b602082019050919050565b5f6020820190508181035f830152610833816107fa565b9050919050565b7f73656e6465722026207265636569766572206d757374206265206469666665725f8201527f656e742e00000000000000000000000000000000000000000000000000000000602082015250565b5f61089460248361075a565b915061089f8261083a565b604082019050919050565b5f6020820190508181035f8301526108c181610888565b9050919050565b7f6f6e6c79206f776e6572000000000000000000000000000000000000000000005f82015250565b5f6108fc600a8361075a565b9150610907826108c8565b602082019050919050565b5f6020820190508181035f830152610929816108f0565b9050919050565b7f616d6f756e74206973206e6f74207a65726f00000000000000000000000000005f82015250565b5f61096460128361075a565b915061096f82610930565b602082019050919050565b5f6020820190508181035f83015261099181610958565b9050919050565b7f6e6f7420656e6f7567682062616c616e636520746f207061792e0000000000005f82015250565b5f6109cc601a8361075a565b91506109d782610998565b602082019050919050565b5f6020820190508181035f8301526109f9816109c0565b9050919050565b7f4e487b71000000000000000000000000000000000000000000000000000000005f52601160045260245ffd5b5f610a3782610729565b9150610a4283610729565b9250828203905081811115610a5a57610a59610a00565b5b92915050565b5f610a6a82610729565b9150610a7583610729565b9250828201905080821115610a8d57610a8c610a00565b5b92915050565b5f81905092915050565b50565b5f610aab5f83610a93565b9150610ab682610a9d565b5f82019050919050565b5f610aca82610aa0565b9150819050919050565b5f604082019050610ae75f8301856105fc565b610af46020830184610732565b939250505056fea2646970667358221220032851a034f0e33a2d1902460e53d641a5f576c65d5e7150f14e0a7d7c3836b664736f6c63430008140033",
  "immutableReferences": {},
  "source": "//SPDX-License-Identifier: MIT\npragma solidity ^0.8.19;\n\ncontract CryptoPay{\n\n    mapping(address=>uint) balances;\n\n    event _transfer(bool _status, uint _amount);\n   \n    modifier _isEmptyReceiver(address receiver){\n        require(receiver!=address(0),\"receiver address is empty.\");\n        _;\n    }\n    modifier _isEmptySender(address sender){\n        require(sender!=address(0),\"sender address is empty.\");\n        _;\n    }\n    modifier _isEqual(address sender,address receiver){\n        require(sender!=receiver,\"sender & receiver must be different.\");\n        _;\n    }\n\n    receive() external payable{}\n    fallback() external payable{}\n   \n    function _payment(address payable _sender, address payable _receiver) public payable _isEmptySender(_sender) _isEmptyReceiver(_receiver) _isEqual(_sender,_receiver) returns(bool ,bytes memory){\n        require(_sender==payable(msg.sender),\"only owner\");\n        require(msg.value>0,\"amount is not zero\");\n        uint amount= msg.value;\n        balances[_sender]=_sender.balance;\n        require(balances[_sender]>=amount,\"not enough balance to pay.\");\n        balances[_receiver]=_receiver.balance;\n        balances[_sender]-=amount;\n        balances[_receiver]+=amount;\n        (bool flag,bytes memory _data)=_receiver.call{gas:50000,value:msg.value}(\"\");\n        emit _transfer(flag,amount);\n        return (flag,_data);\n    }\n    function _getBalance(address _address) public view returns(uint _currentBalance){\n        return (_address.balance); \n    }\n   \n}",
  "sourcePath": "C:\\src\\blockchain\\demo\\contracts\\CryptoPay.sol",
  "compiler": {
    "name": "solc",
    "version": "0.8.20+commit.a1b79de6.Emscripten.clang"
  },
  "schemaVersion": "3.4.13",
  "updatedAt": "2023-05-19T07:04:54.107Z",
  "networkType": "ethereum",
  "devdoc": {
    "kind": "dev",
    "methods": {},
    "version": 1
  },
  "userdoc": {
    "kind": "user",
    "methods": {},
    "version": 1
  }
}