{
  "contractName": "Payment",
  "abi": [
    {
      "inputs": [
        {
          "internalType": "address payable",
          "name": "_receiverAddress",
          "type": "address"
        }
      ],
      "stateMutability": "nonpayable",
      "type": "constructor"
    },
    {
      "anonymous": false,
      "inputs": [
        {
          "indexed": false,
          "internalType": "bool",
          "name": "_status",
          "type": "bool"
        },
        {
          "indexed": false,
          "internalType": "string",
          "name": "reason",
          "type": "string"
        }
      ],
      "name": "_revertTransaction",
      "type": "event"
    },
    {
      "anonymous": false,
      "inputs": [
        {
          "indexed": false,
          "internalType": "bool",
          "name": "_status",
          "type": "bool"
        },
        {
          "indexed": false,
          "internalType": "uint256",
          "name": "_amount",
          "type": "uint256"
        },
        {
          "indexed": false,
          "internalType": "bytes",
          "name": "_data",
          "type": "bytes"
        }
      ],
      "name": "_transfer",
      "type": "event"
    },
    {
      "stateMutability": "payable",
      "type": "fallback"
    },
    {
      "stateMutability": "payable",
      "type": "receive"
    },
    {
      "inputs": [
        {
          "internalType": "address payable",
          "name": "_sender",
          "type": "address"
        }
      ],
      "name": "_payAmount",
      "outputs": [],
      "stateMutability": "payable",
      "type": "function"
    },
    {
      "inputs": [
        {
          "internalType": "address payable",
          "name": "_sender",
          "type": "address"
        }
      ],
      "name": "_payment",
      "outputs": [
        {
          "internalType": "bool",
          "name": "",
          "type": "bool"
        },
        {
          "internalType": "bytes",
          "name": "",
          "type": "bytes"
        }
      ],
      "stateMutability": "payable",
      "type": "function"
    }
  ],
  "bytecode": "0x608060405234801561000f575f80fd5b506040516200103a3803806200103a833981810160405281019061003391906100d6565b805f806101000a81548173ffffffffffffffffffffffffffffffffffffffff021916908373ffffffffffffffffffffffffffffffffffffffff16021790555050610101565b5f80fd5b5f73ffffffffffffffffffffffffffffffffffffffff82169050919050565b5f6100a58261007c565b9050919050565b6100b58161009b565b81146100bf575f80fd5b50565b5f815190506100d0816100ac565b92915050565b5f602082840312156100eb576100ea610078565b5b5f6100f8848285016100c2565b91505092915050565b610f2b806200010f5f395ff3fe60806040526004361061002c575f3560e01c806337c6107f146100355780638ddc4a221461006657610033565b3661003357005b005b61004f600480360381019061004a9190610736565b610082565b60405161005d929190610805565b60405180910390f35b610080600480360381019061007b9190610736565b61052a565b005b5f6060825f73ffffffffffffffffffffffffffffffffffffffff168173ffffffffffffffffffffffffffffffffffffffff16036100f4576040517f08c379a00000000000000000000000000000000000000000000000000000000081526004016100eb9061088d565b60405180910390fd5b5f73ffffffffffffffffffffffffffffffffffffffff165f8054906101000a900473ffffffffffffffffffffffffffffffffffffffff1673ffffffffffffffffffffffffffffffffffffffff1603610181576040517f08c379a0000000000000000000000000000000000000000000000000000000008152600401610178906108f5565b60405180910390fd5b835f8054906101000a900473ffffffffffffffffffffffffffffffffffffffff1673ffffffffffffffffffffffffffffffffffffffff168173ffffffffffffffffffffffffffffffffffffffff160361020f576040517f08c379a000000000000000000000000000000000000000000000000000000000815260040161020690610983565b60405180910390fd5b5f3411610251576040517f08c379a0000000000000000000000000000000000000000000000000000000008152600401610248906109eb565b60405180910390fd5b8473ffffffffffffffffffffffffffffffffffffffff163160015f8773ffffffffffffffffffffffffffffffffffffffff1673ffffffffffffffffffffffffffffffffffffffff1681526020019081526020015f20819055505f3490508060015f8873ffffffffffffffffffffffffffffffffffffffff1673ffffffffffffffffffffffffffffffffffffffff1681526020019081526020015f2054101561032e576040517f08c379a000000000000000000000000000000000000000000000000000000000815260040161032590610a53565b60405180910390fd5b5f8054906101000a900473ffffffffffffffffffffffffffffffffffffffff1673ffffffffffffffffffffffffffffffffffffffff163160015f805f9054906101000a900473ffffffffffffffffffffffffffffffffffffffff1673ffffffffffffffffffffffffffffffffffffffff1673ffffffffffffffffffffffffffffffffffffffff1681526020019081526020015f20819055508060015f8873ffffffffffffffffffffffffffffffffffffffff1673ffffffffffffffffffffffffffffffffffffffff1681526020019081526020015f205f8282546104129190610aa7565b925050819055508060015f805f9054906101000a900473ffffffffffffffffffffffffffffffffffffffff1673ffffffffffffffffffffffffffffffffffffffff1673ffffffffffffffffffffffffffffffffffffffff1681526020019081526020015f205f8282546104859190610ada565b925050819055505f805f8054906101000a900473ffffffffffffffffffffffffffffffffffffffff1673ffffffffffffffffffffffffffffffffffffffff1634611388906040516104d590610b3a565b5f60405180830381858888f193505050503d805f8114610510576040519150601f19603f3d011682016040523d82523d5f602084013e610515565b606091505b50915091508181965096505050505050915091565b3373ffffffffffffffffffffffffffffffffffffffff168173ffffffffffffffffffffffffffffffffffffffff1614610598576040517f08c379a000000000000000000000000000000000000000000000000000000000815260040161058f90610b98565b60405180910390fd5b3073ffffffffffffffffffffffffffffffffffffffff166337c6107f34836040518363ffffffff1660e01b81526004016105d29190610bc5565b5f6040518083038185885af19350505050801561061157506040513d5f823e3d601f19601f8201168201806040525081019061060e9190610d26565b60015b61068a5761061d610d8c565b806308c379a00361067b5750610631610dab565b8061063c575061067d565b7f2fba53e85b752787650b5d0376201acfc89ae70bbc76e7e1b441d5db9a1f71cf5f8260405161066d929190610e7c565b60405180910390a150610685565b505b3d5f803e3d5ffd5b6106c8565b7f9e5993bfdc1c92f8a2ccaef0bd3e2c37b88ee578d44eec8cca1c1fa4639fc9328234836040516106bd93929190610eb9565b60405180910390a150505b50565b5f604051905090565b5f80fd5b5f80fd5b5f73ffffffffffffffffffffffffffffffffffffffff82169050919050565b5f610705826106dc565b9050919050565b610715816106fb565b811461071f575f80fd5b50565b5f813590506107308161070c565b92915050565b5f6020828403121561074b5761074a6106d4565b5b5f61075884828501610722565b91505092915050565b5f8115159050919050565b61077581610761565b82525050565b5f81519050919050565b5f82825260208201905092915050565b5f5b838110156107b2578082015181840152602081019050610797565b5f8484015250505050565b5f601f19601f8301169050919050565b5f6107d78261077b565b6107e18185610785565b93506107f1818560208601610795565b6107fa816107bd565b840191505092915050565b5f6040820190506108185f83018561076c565b818103602083015261082a81846107cd565b90509392505050565b5f82825260208201905092915050565b7f73656e646572206164647265737320697320656d7074792e00000000000000005f82015250565b5f610877601883610833565b915061088282610843565b602082019050919050565b5f6020820190508181035f8301526108a48161086b565b9050919050565b7f7265636569766572206164647265737320697320656d7074792e0000000000005f82015250565b5f6108df601a83610833565b91506108ea826108ab565b602082019050919050565b5f6020820190508181035f83015261090c816108d3565b9050919050565b7f73656e6465722026207265636569766572206d757374206265206469666665725f8201527f656e742e00000000000000000000000000000000000000000000000000000000602082015250565b5f61096d602483610833565b915061097882610913565b604082019050919050565b5f6020820190508181035f83015261099a81610961565b9050919050565b7f616d6f756e74206973206e6f74207a65726f00000000000000000000000000005f82015250565b5f6109d5601283610833565b91506109e0826109a1565b602082019050919050565b5f6020820190508181035f830152610a02816109c9565b9050919050565b7f6e6f7420656e6f7567682062616c616e636520746f207061792e0000000000005f82015250565b5f610a3d601a83610833565b9150610a4882610a09565b602082019050919050565b5f6020820190508181035f830152610a6a81610a31565b9050919050565b5f819050919050565b7f4e487b71000000000000000000000000000000000000000000000000000000005f52601160045260245ffd5b5f610ab182610a71565b9150610abc83610a71565b9250828203905081811115610ad457610ad3610a7a565b5b92915050565b5f610ae482610a71565b9150610aef83610a71565b9250828201905080821115610b0757610b06610a7a565b5b92915050565b5f81905092915050565b50565b5f610b255f83610b0d565b9150610b3082610b17565b5f82019050919050565b5f610b4482610b1a565b9150819050919050565b7f6f6e6c79206f776e6572000000000000000000000000000000000000000000005f82015250565b5f610b82600a83610833565b9150610b8d82610b4e565b602082019050919050565b5f6020820190508181035f830152610baf81610b76565b9050919050565b610bbf816106fb565b82525050565b5f602082019050610bd85f830184610bb6565b92915050565b610be781610761565b8114610bf1575f80fd5b50565b5f81519050610c0281610bde565b92915050565b5f80fd5b5f80fd5b7f4e487b71000000000000000000000000000000000000000000000000000000005f52604160045260245ffd5b610c46826107bd565b810181811067ffffffffffffffff82111715610c6557610c64610c10565b5b80604052505050565b5f610c776106cb565b9050610c838282610c3d565b919050565b5f67ffffffffffffffff821115610ca257610ca1610c10565b5b610cab826107bd565b9050602081019050919050565b5f610cca610cc584610c88565b610c6e565b905082815260208101848484011115610ce657610ce5610c0c565b5b610cf1848285610795565b509392505050565b5f82601f830112610d0d57610d0c610c08565b5b8151610d1d848260208601610cb8565b91505092915050565b5f8060408385031215610d3c57610d3b6106d4565b5b5f610d4985828601610bf4565b925050602083015167ffffffffffffffff811115610d6a57610d696106d8565b5b610d7685828601610cf9565b9150509250929050565b5f8160e01c9050919050565b5f60033d1115610da85760045f803e610da55f51610d80565b90505b90565b5f60443d10610e3757610dbc6106cb565b60043d036004823e80513d602482011167ffffffffffffffff82111715610de4575050610e37565b808201805167ffffffffffffffff811115610e025750505050610e37565b80602083010160043d038501811115610e1f575050505050610e37565b610e2e82602001850186610c3d565b82955050505050505b90565b5f81519050919050565b5f610e4e82610e3a565b610e588185610833565b9350610e68818560208601610795565b610e71816107bd565b840191505092915050565b5f604082019050610e8f5f83018561076c565b8181036020830152610ea18184610e44565b90509392505050565b610eb381610a71565b82525050565b5f606082019050610ecc5f83018661076c565b610ed96020830185610eaa565b8181036040830152610eeb81846107cd565b905094935050505056fea2646970667358221220c8950f1b9a2bb589af4ce3c5afaf97505ea29015a90aa42dad96d5db101b723f64736f6c63430008140033",
  "immutableReferences": {},
  "source": "//SPDX-License-Identifier: MIT\r\npragma solidity ^0.8.19;\r\n\r\ncontract Payment{\r\n\r\n    address payable _receiver;\r\n    \r\n    event _transfer(bool _status, uint _amount,bytes _data);\r\n    event _revertTransaction(bool _status,string reason);\r\n    // event _revertTransaction(bool _status,bytes reason);\r\n\r\n    constructor(address payable _receiverAddress){\r\n        _receiver=_receiverAddress;\r\n    }\r\n    mapping(address=>uint) balances;\r\n    // event _transfer(bool _status, uint _amount);\r\n\r\n    modifier _isEmptyReceiver(){\r\n        require(_receiver!=address(0),\"receiver address is empty.\");\r\n        _;\r\n    }\r\n    modifier _isEmptySender(address sender){\r\n        require(sender!=address(0),\"sender address is empty.\");\r\n        _;\r\n    }\r\n    modifier _isEqual(address sender){\r\n        require(sender!=_receiver,\"sender & receiver must be different.\");\r\n        _;\r\n    }\r\n    \r\n    receive() external payable{}\r\n    fallback() external payable{}\r\n   \r\n    function _payAmount(address payable _sender) payable public {\r\n\r\n        require(_sender==payable(msg.sender),\"only owner\");\r\n\r\n        try this._payment{value:msg.value}(_sender) returns(bool flag,bytes memory _data){//passing msg.value from one contract to another contract\r\n            emit _transfer(flag,msg.value,_data);\r\n        }\r\n        catch Error(string memory _cause){\r\n            emit _revertTransaction(false, _cause);\r\n        }\r\n        // catch (bytes memory _cause){\r\n        //     emit _revertTransaction(false, _cause);\r\n        // }\r\n    }\r\n    function _payment(address payable _sender) public payable _isEmptySender(_sender) _isEmptyReceiver() _isEqual(_sender) returns(bool , bytes memory ){\r\n            // require(_sender==payable(msg.sender),\"only owner\");\r\n            require((msg.value)>0,\"amount is not zero\");\r\n            balances[_sender]=_sender.balance;\r\n            uint _amount=msg.value;\r\n            require(balances[_sender]>=_amount,\"not enough balance to pay.\");\r\n            balances[_receiver]=_receiver.balance;\r\n            balances[_sender]-=_amount;\r\n            balances[_receiver]+=_amount;\r\n            (bool flag,bytes memory _data)=_receiver.call{value:msg.value,gas:5000}(\"\");\r\n            // require(flag==true,\"not transfered\");\r\n            // emit _transfer(flag,_amount);\r\n            return (flag,_data);\r\n    }\r\n}\r\n",
  "sourcePath": "C:\\src\\blockchain\\demo\\contracts\\Payment.sol",
  "compiler": {
    "name": "solc",
    "version": "0.8.20+commit.a1b79de6.Emscripten.clang"
  },
  "schemaVersion": "3.4.13",
  "updatedAt": "2023-05-24T08:04:06.403Z",
  "devdoc": {
    "kind": "dev",
    "methods": {},
    "version": 1
  },
  "userdoc": {
    "kind": "user",
    "methods": {},
    "version": 1
  }
}